:020000040800F2
:10000000480700203502000897140008B5130008BF
:10001000951400082B040008D91700080000000000
:100020000000000000000000000000001D16000895
:100030002D04000800000000991400081F16000895
:100040004F0200084F0200084F0200084F0200084C
:100050004F0200084F0200084F0200084F0200083C
:100060004F0200084F0200084F0200084F0200082C
:100070004F0200084F0200084F0200084F0200081C
:100080004F0200084F0200084F0200080000000065
:100090000000000000000000000000004F02000807
:1000A0004F0200084F0200084F0200084F020008EC
:1000B0004F0200084F0200084F0200084F020008DC
:1000C0004F0200084F0200084F0200084F020008CC
:1000D0004F0200084F0200084F0200080000000015
:1000E0002F0400084F0200084F0200080000000023
:1000F0000000000000000000000000004F020008A7
:10010000000000004F0200084F0200084F020008E4
:1001100000000000000000000000000000000000DF
:100120004F0200084F0200084F0200084F0200086B
:100130004F02000800000000000000000000000066
:100140000000000000000000000000004F02000856
:100150004F0200084F0200084F0200084F0200083B
:100160004F0200084F0200080000000000000000DD
:10017000000000000000000000000000000000007F
:10018000000000004F020008000000000000000016
:100190004F02000800F002F800F03CF80AA090E8D6
:1001A000000C82448344AAF10107DA4501D100F032
:1001B00031F8AFF2090EBAE80F0013F0010F18BFC3
:1001C000FB1A43F001031847101700003017000016
:1001D000103A24BF78C878C1FAD8520724BF30C873
:1001E00030C144BF04680C60704700000023002445
:1001F00000250026103A28BF78C1FBD8520728BF37
:1002000030C148BF0B6070471FB501F053FB1FBDE5
:1002100010B510BD00F0CFF81146FFF7F5FF01F063
:10022000EDFA00F0EDF803B4FFF7F2FF03BC00F0C5
:10023000F5F800000948804709480047FEE7FEE757
:10024000FEE7FEE7FEE7FEE7FEE7FEE7FEE7FEE786
:1002500004480549054A064B70470000BD160008D2
:1002600095010008480100204807002048030020AD
:100270004803002053EA020C00F069802DE9F04B9E
:100280004FF00006002B1FBFB3FA83F503FA05F405
:1002900024FA05F65E4012BF1643B2FA82F502FA5E
:1002A00005F4C5F120051EBF22FA05FC44EA0C0442
:1002B000203556EA044C4FEA144418BF641C4FF032
:1002C00000084FF00009904271EB030C39D300296C
:1002D00019BFB1FA81F701FA07F6B0FA80F700FA10
:1002E00007F6C7F120071EBF20FA07FC46EA0C06F6
:1002F0002037B6FBF4FCA7EB0507103F07F01F0BF8
:10030000CBF120060CFA0BFB2CFA06F644BFB346E1
:100310000026202FA4BF5E464FF0000B5BEA060CC0
:1003200008BF4FF0010B19EB0B09ABFB027C48EB4C
:100330000608C01B06FB02CC0BFB03CC71EB0C01C7
:10034000C1E70B46024641464846BDE8F08B13B56F
:100350004FF000004FF00001AFF30080BDE81C40FB
:1003600070474FF0000200B5134694469646203978
:1003700022BFA0E80C50A0E80C50B1F12001BFF45E
:10038000F7AF090728BFA0E80C5048BF0CC05DF8C4
:1003900004EB890028BF40F8042B08BF704748BF12
:1003A00020F8022B11F0804F18BF00F8012B704786
:1003B000704770477047754600F02CF8AE46050050
:1003C0006946534620F00700854618B020B5FFF770
:1003D0003FFFBDE820404FF000064FF000074FF010
:1003E00000084FF0000B21F00701AC46ACE8C00953
:1003F000ACE8C009ACE8C009ACE8C0098D4670475C
:1004000010B50446AFF300802046BDE81040FFF76A
:100410000ABF000000487047E4000020014918208E
:10042000ABBEFEE7260002007047FEE770474FF4C0
:10043000005000F001B87047044910B50A68024244
:1004400002D00860FFF7F7FF10BD0000143C014028
:100450002DE9F84FDFF8B8A10022012403254FF061
:100460000F090AF1040BAAF1040E00BF0B6804FA8D
:1004700002F63340B34273D10F7907F00307012F1F
:1004800001D0022F16D187684FEA420805FA08FC0E
:1004900027EA0C07D1F80CC00CFA08FC4CEA070C50
:1004A000C0F808C04768B7430E79C6F300169640F7
:1004B0003E4346600E79F643B6070DD0C768560036
:1004C00005FA06FC27EA0C07D1F808C00CFA06FC6E
:1004D0004CEA070CC0F80CC00E7906F00306022E99
:1004E00010D1D60800EB8608D8F8206057074FEAED
:1004F000D76C09FA0CF7BE430F6907FA0CF73743BC
:10050000C8F8207006684FEA420C05FA0CF7BE43A3
:100510000F7907F0030707FA0CF7374307604E68B7
:1005200016F4403F6DD03B4E376847F48047376044
:10053000366822F0030706F480460096364E07EB35
:10054000060CDCF8086897073F0F09FA07F826EA57
:100550000806DFF8C880404503D14FF000081EE0D0
:100560004FE0DFF8BC80404502D14FF0010816E0B3
:10057000DFF8B080404502D14FF002080FE0DFF80D
:10058000A880404502D14FF0030808E0DFF89C80C6
:10059000404502D14FF0040801E04FF0070808FA87
:1005A00007F848EA0608CCF80888DAF800605746E9
:1005B000D1F804C09E435FEACC2C00D51E433E60B8
:1005C000DBF800605F46D1F804C09E435FEA8C2CE4
:1005D00000D51E433E60DEF800607746D1F804C0C7
:1005E0009E435FEA8C3C00D51E433E60084F083FA7
:1005F0003E68D1F804C09E435FEACC3C00D51E4360
:100600003E60521C102AFFF431AFBDE8F88F0000A5
:10061000083C0140443802400030014000000240E4
:100620000004024000080240000C0240001002409A
:100630000069084000D00120704700000148806830
:1006400070470000180000200248816802781144B9
:1006500081607047180000200B4810B5016841F414
:1006600000710160016841F480610160016841F43A
:1006700080710160032000F071F8002000F006F89E
:1006800000F024F8002010BD003C024070B50D4D74
:1006900004464FF47A712878B1FBF0F00A490968F2
:1006A000B1FBF0F000F00BFE48B9102C07D200228D
:1006B0002146501E00F032F800206C6070BD012011
:1006C00070BD000018000020240000200B4882B0FC
:1006D000016841F480410160006800F480400090AE
:1006E0000648001F016841F080510160006800F079
:1006F00080500090072002B000F030B8443802402B
:10070000002809DB00F01F02012191404009800010
:1007100000F1E020C0F8001170470000F0B40E4B6B
:100720001B680C46C3F30223C3F10705042D00D94F
:100730000425191D072901D2002300E0DB1E012634
:1007400006FA05F1491E214099409E40761E16404A
:100750003143F0BC01F041B80CED00E0064900F077
:10076000070208684FF6FF03184040EA0220034AD8
:1007700010430860704700000CED00E00000FA052F
:100780002DE9F0470E46050065D0DFF81481D8F852
:100790000000F7B200F00700B04207D288F80070FE
:1007A000D8F8000000F00700B04254D128683D4C52
:1007B000810712D5400703D5206840F4E05020603F
:1007C0002878000703D5206840F460402060206846
:1007D000A96820F0F000084320602878C0072DD0D9
:1007E000304968680839012812D0022813D003283C
:1007F00011D00968890700292DDA216821F0030149
:1008000001432160FFF71AFF814641F2883A0EE06A
:1008100009688903EFE709688901ECE7FFF70EFF34
:10082000A0EB0901514502D90320BDE8F0872068FB
:10083000696800F00C00B0EB810FEFD1D8F8001020
:10084000404601F00701B14207D90770006800F087
:100850000700B04201D00120E7E72878400705D51E
:100860002068E96820F4E0500843206028780007F9
:1008700006D52068296920F4604040EAC100206064
:1008800000F038F82168084AC1F30311515CC840F0
:100890000649086006480068FFF7F8FE0020C4E734
:1008A000003C024008380240BE1800082400002026
:1008B0001C0000200448054900680968044AC1F387
:1008C0008221515CC8407047240000200838024053
:1008D000CE1800080448054900680968044AC1F3B5
:1008E0004231515CC8407047240000200838024063
:1008F000CE180008154810B5006810F00C02144816
:1009000013D04110042A0FD0082A0ED10F4C241FF7
:100910002268236802F03F025B0207D52068C0F31B
:100920008810A0FB010106E0084610BD2168C1F354
:100930008811A1FB00010023FFF79CFC2168C1F393
:100940000141491C4900B0FBF1F010BD08380240DC
:100950000024F4002DE9F84F04006ED02078DFF871
:100960004C93C007A9F104054AD009F104000168BD
:10097000C1F38101012908D00068C0F38100022879
:100980000AD1D9F80000400206D52868800337D57F
:1009900060680028E1D033E06068B0F5803F10D097
:1009A000B0F5A02F286810D020F480302860286887
:1009B00020F4802028606068A8B1FFF73FFE06465B
:1009C0000DE0286840F48030F4E740F4802028608F
:1009D000F7E700BFFFF732FE801B642873D8286852
:1009E0008003F7D50CE0FFF729FE064605E000BFBF
:1009F000FFF724FE801B6428F0D828688003F7D412
:100A00002078DFF8AC8280074FF0000A3ED5A74877
:100A1000001D016811F00C0F08D00068C0F38100C0
:100A200002280BD1D9F80000400207D428688007BB
:100A300016D5E068012800D112E033E1E068B8B1D2
:100A40000120C8F80000FFF7F9FD064605E000BFE9
:100A5000FFF7F4FD801B0228C0D828688007F7D56F
:100A60002868216920F0F80040EAC10028600DE004
:100A7000C8F800A0FFF7E2FD064604E0FFF7DEFD40
:100A8000801B02281FD828688007F7D42078000729
:100A900022D5864F87486169703771B101210160A5
:100AA000FFF7CCFD064604E0FFF7C8FD801B0228D7
:100AB00009D838688007F7D50EE0C0F800A0FFF726
:100AC000BDFD064605E082E0FFF7B8FD801B022869
:100AD0007DD838688007F7D42078400768D5DFF8DC
:100AE000CCB100270BF13C0BDBF80000C0000BD4AD
:100AF000DBF8001041F08051CBF80010DBF800006B
:100B0000012700F0805000906B4E3068C00510D473
:100B1000306840F480703060FFF790FD009005E091
:100B2000FFF78CFD0099401A022850D83068C005A4
:100B3000F6D55E4EA0686C3601280FD005283068C7
:100B400010D020F001003060306820F004003060E8
:100B5000A068B8B1FFF772FD00900FE0306840F078
:100B60000100F4E740F004003060F7E7FFF766FDAE
:100B70000099411A41F28830814266D83068800776
:100B8000F4D50EE0FFF75AFD009007E0FFF756FDA1
:100B90000099411A41F28830814256D83068800766
:100BA000F4D42FB1DBF8001021F08051CBF8001005
:100BB000A069C8B33D49091D0968C1F38101022933
:100BC0004AD00228504607D0C8F8600000E03CE058
:100BD000FFF734FD04463BE04746C8F86000FFF7E6
:100BE0002DFD064605E000BFFFF728FD801B02280B
:100BF0002BD828688001F7D4D4E907010843A16AFB
:100C00002E4A490802EB0141626A41EA8211084317
:100C100094F82C1040EA0161C9F8001001203866F0
:100C2000FFF70CFD044606E03EE000BFFFF706FDBF
:100C3000001B022809D828688001F7D534E000BFDE
:100C4000FFF7FCFC001B022802D90320BDE8F88F47
:100C500028688001F4D427E00128F7D0D9F80000F3
:100C6000E26900F4800191421CD1226A00F03F0148
:100C7000914217D147F6C071626A0140B1EB821F01
:100C800010D1A26A4FF0FF3300F4403103EB52025F
:100C9000B1EB024F06D194F82C1000F07060B0EB6D
:100CA000016F01D00120D1E70020CFE704380240D6
:100CB00000004742800E4742007000400000FFFFE6
:100CC00070B5040009D0606A002540B125616561F6
:100CD000A56294F8510040B10CE0012070BD60683D
:100CE000B0F5827FF4D0E561F2E784F850502046F9
:100CF00000F044F8022084F851002068016821F0D7
:100D000040010160A088218900F4827001F404414F
:100D10000843A18901F400610843217C01F002012C
:100D20000843217D01F001010843218B01F400718A
:100D30000843217F01F03801084394F8201001F0A6
:100D400080010843218D01F40051084321680860A7
:100D5000A069042101EA104094F8241001F0100168
:100D60000843216848602068C16921F40061C161BD
:100D70006565012084F85100002070BDF0B587B092
:100D8000044614216846FFF7ECFA1C4920688842A3
:100D900032D11B480024016841F4804101600068A1
:100DA00000F48040059016481038016841F00401B5
:100DB0000160016801F004010591016841F0020140
:100DC00001600068022500F0020005900C20CDE9CA
:100DD000000502AA0326052782E8D00069460948D3
:100DE000FFF736FB6802CDE9000502AA694682E8F2
:100DF000D0000548FFF72CFB07B0F0BD00380040DD
:100E00004038024000080240000402402DE9F84F3B
:100E1000044690F85100984616460F4600250128D2
:100E200001D0022598E060684FF0040BB0F5827F96
:100E300001D1A068F8B194F85000012826D04FF0F5
:100E4000010984F85090FFF7F9FB8246002F7FD00C
:100E5000002E7DD084F851B000206065A763A6877E
:100E6000E6872063A086E08620646064A068B0F511
:100E7000004F0DD016E084F851B013460A462046C4
:100E8000CDF8008000F024F9BDE8F88F0220FBE7E0
:100E90002068016821F0400101602068016821F4A8
:100EA0008041016020680168490603D4016841F06F
:100EB00040010160E068D8B13BE020688168C90763
:100EC00009D0007BA16B0870A06B401CA063E08F71
:100ED000401EE0870CE0FFF7B1FBA0EB0A014145A3
:100EE00003D3B8F1FF3F03D006E0B8F1000F03D001
:100EF000E08F0028E1D11FE003252BE02068816806
:100F0000C90709D0C068A16B0880A06B801CA063D2
:100F1000E08F401EE0870CE0FFF790FBA0EB0A019A
:100F2000414503D3B8F1FF3F03D0E5E7B8F1000F27
:100F3000E2D0E08F0028E1D152464146204600F041
:100F4000ACFA08B120206065606D00E000E008B1F7
:100F5000012501E084F85190002084F850002846D3
:100F600092E72DE9F84F044690F850000026984685
:100F700015468A4601280CD0012784F85070FFF7E7
:100F80005DFB814694F85100B346012804D0022647
:100F90009AE00220BDE8F88FBAF1000F6FD0002D63
:100FA0006DD0032084F85100C4F854B0C4F830A0C8
:100FB000A586E586C4F838B0A4F83CB0A4F83EB0E5
:100FC000C4F844B0C4F840B0A068B0F5004F09D1EF
:100FD0002068016821F0400101602068016841F447
:100FE0008041016020680168490603D4016841F02E
:100FF00040010160E068B0F5006F606803D058B34D
:10100000012D29D049E008B1012D1FD1206B2168A5
:101010000088C86006E020688168890709D5216BCF
:101020000988C160206B801C2063E08E401EE08632
:101030000CE0FFF703FBA0EB0901414503D3B8F136
:10104000FF3F03D006E0B8F1000F03D0E08E002888
:10105000E1D125E0032635E0206B21680078087394
:1010600006E02068816889070AD5216B0978017339
:10107000206B401C2063E08E401EE0860DE01FE0E8
:10108000FFF7DCFAA0EB0901414503D3B8F1FF3FBC
:1010900003D0DFE7B8F1000FDCD0E08E0028E0D10C
:1010A0004A464146204600F027FA08B120206065F4
:1010B000A06818B92068C16880680090606D08B1A8
:1010C000012601E084F8517084F850B0304661E7A1
:1010D0002DE9FF4F81B0044690F8500000260E9F86
:1010E0001D4693464FF0010901280FD04FF0010A29
:1010F00084F850A0FFF7A2FA804694F85100616886
:1011000001280DD0B1F5827F08D103E0022005B09F
:10111000BDE8F08FA16809B9042801D00226C9E012
:101120000298002865D0BBF1000FFBD0002DF9D04C
:1011300094F85100042802D0052084F851000020C2
:101140006065C4F838B0E587A58702992163E58614
:10115000A5862064606420680168490603D401689C
:1011600041F040010160E068B0F5006F606803D0B5
:10117000F0B3012D47D081E008B1012D3CD1206BA7
:1011800021680088C860206B801C2063E08E401EB0
:10119000E08631E02068816889070FD5E18E69B16A
:1011A000B9F1010F0AD1216B0988C160206B801C45
:1011B0002063E08E401EE0864FF0000920688168C1
:1011C000C9070CD0E18F51B1C068A16B0880A06B3A
:1011D000801CA063E08F401EE0874FF00109FFF7FD
:1011E0002DFAA0EB0800B84206D3781C04D001E029
:1011F00009E05BE003265BE0E08E0028CAD1E08FC7
:101200000028C7D140E0206B216800780873206B6C
:10121000401C2063E08E401EE0862FE0206881683D
:1012200089070FD5E18E69B1B9F1010F0AD1216BA0
:1012300009780173206B401C2063E08E401EE0861D
:101240004FF0000920688168C9070CD0E18F51B1C7
:10125000C068A16B0870A06B401CA063E08F401EAB
:10126000E0874FF00109FFF7E9F9A0EB0800B84269
:1012700002D3781C02D0BAE7002FB8D0E08E002845
:10128000CCD1E08F0028C9D142463946204600F033
:1012900033F918B10126202060650BE0A06818B969
:1012A0002068C16880680090606D08B1012601E087
:1012B00084F851A0002084F85000304627E710B58C
:1012C000401EB0F1807F01D3012010BD4FF0E0241B
:1012D00060610F21601700F080FA0020A0610720F4
:1012E0002061002010BD70B5040004D094F84100C6
:1012F000002510B106E0012070BD84F84050204662
:1013000000F024F8242084F841002068C16821F40A
:101310000051C160204600F0D9F92068016921F42C
:10132000904101612068416921F02A0141612068F2
:10133000C16841F40051C1606564202084F8410017
:1013400084F842006563002070BD000010B586B0CF
:10135000044614216846FFF704F8134920688842C0
:101360001FD112480021026842F400320260006876
:1013700000F4003005900D481038026842F0010278
:101380000260006800F0010005900C20009002202F
:10139000CDE901010720CDE9031069460448FFF7B4
:1013A00057F806B010BD000000440040403802402D
:1013B00000000240FEE7000010B586B01421684628
:1013C000FEF7CFFF1F480024016841F004010160CF
:1013D000016801F004010591016841F0800101609C
:1013E000016801F080010591016841F0010101608F
:1013F000016801F001010591016841F002010160FD
:101400000068694600F0020005904FF4005000901B
:101410004FF40410CDE901040B48FFF719F8402000
:10142000CDE90004694609480294FFF711F800224B
:1014300011462820FFF772F92820FFF761F906B05E
:1014400010BD000030380240000802400000024099
:101450000F4810B50D4901604FF4827141600021C1
:101460004FF40062C0E9021292100161C0E9051256
:101470002022C0E90721416281620A21C162FFF78F
:101480001FFC002801D072B6FEE710BD00380040F6
:1014900044000020FEE7FEE77047F8B504464068C8
:1014A0004FF48273984221D1A0684FF48065B0F563
:1014B000004F01D0A8420AD12068066826F04006F5
:1014C00006606068984211D1A068A8420ED00092D0
:1014D0000B4600228021204600F044F8002804D06A
:1014E000606D40F0200060650320F8BD00920B465F
:1014F00000220121EFE70000F8B515460E460B4625
:10150000009204460122022100F02CF8A0B91348F1
:1015100013490068B0FBF1F04FF47A714843009032
:101520006068B0F5827F0DD13346002280212046CD
:10153000009500F017F870B1606D40F02000606514
:101540000320F8BD009830B1401E009020688068EC
:10155000C0430006F6D50020F8BD0000240000209E
:1015600000366E012DE9F8431E4691468846044632
:10157000089DFFF763F8401B351AFFF75FF8074631
:1015800025480068C0F3CB30684338E0701C37D082
:10159000FFF754F8C01BA84203D215B1009860B3FE
:1015A0002CE02068416821F0E00141606068B0F5FE
:1015B000827F0BD1A068B0F5004F02D0B0F5806FEC
:1015C00004D12068016821F040010160A06AB0F5F3
:1015D000005F09D12068016821F400510160206892
:1015E000016841F400510160012084F8510000209D
:1015F00084F850000320BDE8F8830025401E0090C9
:101600002068816838EA010004D000214945BDD135
:101610000020F0E70121F9E7240000207047FFF7E0
:1016200013B8000030B593B030216846FEF799FE3C
:1016300014210CA8FEF795FE1E480024016841F015
:1016400080510160006800F0805011901A480168D4
:1016500021F4404141F4004101600068022500F49A
:1016600040401190012003901020009506950490B1
:10167000CDE907404FF4A870099004200A90072094
:101680000B906846FFF766F908B172B6FEE70F20C7
:10169000CDE90C054FF48050CDE90E4002210CA895
:1016A0001094FFF76DF8002801D072B6FEE713B072
:1016B00030BD000040380240007000400248016820
:1016C00041F470010160704788ED00E070B5044698
:1016D00000680169E26821F4405111430161216908
:1016E000A068E26908436169114308432168CA6838
:1016F00049F20C639A430243CA6020684169A269B7
:1017000021F440711143416131492068884202D07F
:101710003049884202D1FFF7DDF801E0FFF7CAF84F
:10172000E2690023192164253226B2F5004F626870
:1017300028D0A0FB0101930F9200FEF79BFD01460C
:10174000B0FBF5F06FF01802504301EB800006EBA0
:101750000010B0FBF5F000F0F002B1FBF5F002EB89
:101760000012B1FBF5F06FF01803584301EB800055
:1017700006EB0010B0FBF5F000F00F0021681044FC
:10178000886070BDA0FB010192185B41FEF772FDFD
:101790000146B0FBF5F00201B1FBF5F06FF0180364
:1017A000584301EB800006EBC000B0FBF5F000F001
:1017B000F80002EB4002B1FBF5F0584301EB80006A
:1017C00006EBC000B0FBF5F000F00700D6E7000024
:1017D0000010014000140140FEE70907090E00282F
:1017E00004DB00F1E02080F80014704700F00F00E7
:1017F00000F1E02080F8141D70470000FEF72CFF78
:10180000FFF710FFFFF7D8FD274826490C2201609B
:101810004FF4E131416000218160C160C0E90412F0
:101820008161C161FFF75FFD08B172B6FEE7FFF7A6
:101830000FFE4FF0FF351D4E07E034B1012C13D0E1
:10184000022C19D0032CF8D124E040213046FEF7B9
:10185000EFFE0128F9D114492B4674390D2201F10C
:101860001C00FFF7D3FA012440213046FEF7E0FECA
:101870000028E2D10224E3E740213046FEF7D8FEFB
:101880000128DAD108482B460C2209495838FFF7BD
:1018900068FB032440213046FEF7CAFE0028D4D05E
:1018A000CBE70000004400409C0000200000024004
:1018B000000000204FF04070E1EE100A7047000079
:1018C00000000000000001020304060708090000F0
:1018D0000000010203040000F818000800000020C6
:1018E00028000000D001000820190008280000206E
:1018F00020070000EC0100080100020003000400C2
:10190000050006000700080009000A000B000C0093
:101910000100000010000000000000000024F4009E
:040000050800019559
:00000001FF
